{
  "contractName": "BlackScholes",
  "abi": [
    {
      "constant": false,
      "inputs": [],
      "name": "blackScholes",
      "outputs": [
        {
          "internalType": "uint256",
          "name": "",
          "type": "uint256"
        }
      ],
      "payable": false,
      "stateMutability": "nonpayable",
      "type": "function"
    }
  ],
  "bytecode": "0x6080604052348015600f57600080fd5b5060868061001e6000396000f3fe6080604052348015600f57600080fd5b506004361060285760003560e01c80633c195aa714602d575b600080fd5b60336049565b6040518082815260200191505060405180910390f35b60008090509056fea265627a7a72315820daac523bb39157307b7c34dd2e87df85fad767fd0c81439c55c75437b29c532e64736f6c63430005100032",
  "source": "/*\n * Opyn's Black Scholes library. Copyright © 2020 by Opyn.co .\n * Author: Aparna Krishnan <aparna@opyn.co>\n */\npragma solidity 0.5.16;\n\ncontract BlackScholes {\n    /**\n     * @notice This function returns the d1 value in the black scholes equation\n     * @param T is the time to expiry\n     * @param S is the current spot price of the asset\n     * @param K is the current strike price of the asset\n     *\n     */\n\n    function d1(\n        int128 T,\n        int128 S,\n        int128 K\n    ) internal returns (uint256) {return 0;}\n    function d2() internal returns (uint256) {return 0;}\n\n    function blackScholes() external returns (uint256) {return 0;}\n}\n",
  "sourcePath": "/Users/aparnakrishnan/Desktop/Opyn/Black-Scholes/contracts/BlackScholes.sol",
  "compiler": {
    "name": "solc",
    "version": "0.5.16+commit.9c3226ce.Emscripten.clang"
  },
  "schemaVersion": "3.2.0",
  "updatedAt": "2020-06-02T23:24:12.221Z",
  "devdoc": {
    "methods": {}
  },
  "userdoc": {
    "methods": {}
  }
}