{
  "contractName": "MockSafeSignedFloatMath",
  "abi": [
    {
      "constant": true,
      "inputs": [
        {
          "internalType": "int256",
          "name": "a",
          "type": "int256"
        },
        {
          "internalType": "int256",
          "name": "b",
          "type": "int256"
        }
      ],
      "name": "mul",
      "outputs": [
        {
          "internalType": "int256",
          "name": "",
          "type": "int256"
        }
      ],
      "payable": false,
      "stateMutability": "pure",
      "type": "function"
    },
    {
      "constant": true,
      "inputs": [
        {
          "internalType": "int256",
          "name": "a",
          "type": "int256"
        },
        {
          "internalType": "int256",
          "name": "b",
          "type": "int256"
        }
      ],
      "name": "div",
      "outputs": [
        {
          "internalType": "int256",
          "name": "",
          "type": "int256"
        }
      ],
      "payable": false,
      "stateMutability": "pure",
      "type": "function"
    },
    {
      "constant": true,
      "inputs": [
        {
          "internalType": "int256",
          "name": "a",
          "type": "int256"
        },
        {
          "internalType": "int256",
          "name": "b",
          "type": "int256"
        }
      ],
      "name": "sub",
      "outputs": [
        {
          "internalType": "int256",
          "name": "",
          "type": "int256"
        }
      ],
      "payable": false,
      "stateMutability": "pure",
      "type": "function"
    },
    {
      "constant": true,
      "inputs": [
        {
          "internalType": "int256",
          "name": "a",
          "type": "int256"
        },
        {
          "internalType": "int256",
          "name": "b",
          "type": "int256"
        }
      ],
      "name": "add",
      "outputs": [
        {
          "internalType": "int256",
          "name": "",
          "type": "int256"
        }
      ],
      "payable": false,
      "stateMutability": "pure",
      "type": "function"
    },
    {
      "constant": true,
      "inputs": [
        {
          "internalType": "int256",
          "name": "a",
          "type": "int256"
        },
        {
          "internalType": "int256",
          "name": "b",
          "type": "int256"
        }
      ],
      "name": "mod",
      "outputs": [
        {
          "internalType": "int256",
          "name": "",
          "type": "int256"
        }
      ],
      "payable": false,
      "stateMutability": "pure",
      "type": "function"
    }
  ],
  "bytecode": "0x608060405234801561001057600080fd5b506107b0806100206000396000f3fe608060405234801561001057600080fd5b50600436106100575760003560e01c806324e289281461005c57806343509138146100a8578063a5f3c23b146100f4578063adefc37b14610140578063bbe93d911461018c575b600080fd5b6100926004803603604081101561007257600080fd5b8101908080359060200190929190803590602001909291905050506101d8565b6040518082815260200191505060405180910390f35b6100de600480360360408110156100be57600080fd5b8101908080359060200190929190803590602001909291905050506101f5565b6040518082815260200191505060405180910390f35b61012a6004803603604081101561010a57600080fd5b810190808035906020019092919080359060200190929190505050610212565b6040518082815260200191505060405180910390f35b6101766004803603604081101561015657600080fd5b81019080803590602001909291908035906020019092919050505061022f565b6040518082815260200191505060405180910390f35b6101c2600480360360408110156101a257600080fd5b81019080803590602001909291908035906020019092919050505061024c565b6040518082815260200191505060405180910390f35b60006101ed828461026990919063ffffffff16565b905092915050565b600061020a82846102b390919063ffffffff16565b905092915050565b600061022782846103e790919063ffffffff16565b905092915050565b6000610244828461047590919063ffffffff16565b905092915050565b6000610261828461050390919063ffffffff16565b905092915050565b60006102ab83836040518060400160405280601881526020017f536166654d6174683a206d6f64756c6f206279207a65726f000000000000000081525061062d565b905092915050565b60008082141561032b576040517f08c379a00000000000000000000000000000000000000000000000000000000081526004018080602001828103825260208152602001807f5369676e6564536166654d6174683a206469766973696f6e206279207a65726f81525060200191505060405180910390fd5b7fffffffffffffffffffffffffffffffffffffffffffffffffffffffffffffffff8214801561037957507f800000000000000000000000000000000000000000000000000000000000000083145b156103cf576040517f08c379a00000000000000000000000000000000000000000000000000000000081526004018080602001828103825260218152602001806107106021913960400191505060405180910390fd5b60008284816103da57fe5b0590508091505092915050565b6000808284019050600083121580156104005750838112155b80610416575060008312801561041557508381125b5b61046b576040517f08c379a00000000000000000000000000000000000000000000000000000000081526004018080602001828103825260218152602001806106ef6021913960400191505060405180910390fd5b8091505092915050565b60008082840390506000831215801561048e5750838113155b806104a457506000831280156104a357508381135b5b6104f9576040517f08c379a00000000000000000000000000000000000000000000000000000000081526004018080602001828103825260248152602001806107586024913960400191505060405180910390fd5b8091505092915050565b6000808314156105165760009050610627565b7fffffffffffffffffffffffffffffffffffffffffffffffffffffffffffffffff8314801561056457507f800000000000000000000000000000000000000000000000000000000000000082145b156105ba576040517f08c379a00000000000000000000000000000000000000000000000000000000081526004018080602001828103825260278152602001806107316027913960400191505060405180910390fd5b60008284029050828482816105cb57fe5b0514610622576040517f08c379a00000000000000000000000000000000000000000000000000000000081526004018080602001828103825260278152602001806107316027913960400191505060405180910390fd5b809150505b92915050565b60008083141582906106da576040517f08c379a00000000000000000000000000000000000000000000000000000000081526004018080602001828103825283818151815260200191508051906020019080838360005b8381101561069f578082015181840152602081019050610684565b50505050905090810190601f1680156106cc5780820380516001836020036101000a031916815260200191505b509250505060405180910390fd5b508284816106e457fe5b079050939250505056fe5369676e6564536166654d6174683a206164646974696f6e206f766572666c6f775369676e6564536166654d6174683a206469766973696f6e206f766572666c6f775369676e6564536166654d6174683a206d756c7469706c69636174696f6e206f766572666c6f775369676e6564536166654d6174683a207375627472616374696f6e206f766572666c6f77a265627a7a7231582007d4898befd15d1ba18b19c46df1c729899e834acd7987a24fc840680f782fcf64736f6c63430005100032",
  "source": "/*\n * CDF contract. Copyright © 2020 by Opyn.co .\n * Author: Aparna Krishnan <aparna@opyn.co>\n */\npragma solidity 0.5.16;\n\nimport \"./SafeSignedFloatMath.sol\";\n\ncontract MockSafeSignedFloatMath {\n    using SafeSignedFloatMath for int256;\n\n    /**\n     * @dev Multiplies two signed integers, reverts on overflow.\n     */\n    function mul(int256 a, int256 b) external pure returns (int256) {\n        return a.mul(b);\n    }\n\n    /**\n     * @dev Integer division of two signed integers truncating the quotient, reverts on division by zero.\n     */\n    function div(int256 a, int256 b) external pure returns (int256) {\n        return a.div(b);\n    }\n\n    /**\n     * @dev Subtracts two signed integers, reverts on overflow.\n     */\n    function sub(int256 a, int256 b) external pure returns (int256) {\n        return a.sub(b);\n    }\n\n    /**\n     * @dev Adds two signed integers, reverts on overflow.\n     */\n    function add(int256 a, int256 b) external pure returns (int256) {\n        return a.add(b);\n    }\n\n    /**\n     * @dev Returns the remainder of dividing two signed integers.\n     */\n    function mod(int256 a, int256 b) external pure returns (int256) {\n        return a.mod(b);\n    }\n}\n",
  "sourcePath": "/Users/aparnakrishnan/Desktop/Opyn/Black-Scholes/contracts/MockSafeSignedFloatMath.sol",
  "compiler": {
    "name": "solc",
    "version": "0.5.16+commit.9c3226ce.Emscripten.clang"
  },
  "schemaVersion": "3.0.19",
  "updatedAt": "2020-06-03T22:45:40.736Z",
  "devdoc": {
    "methods": {
      "add(int256,int256)": {
        "details": "Adds two signed integers, reverts on overflow."
      },
      "div(int256,int256)": {
        "details": "Integer division of two signed integers truncating the quotient, reverts on division by zero."
      },
      "mod(int256,int256)": {
        "details": "Returns the remainder of dividing two signed integers."
      },
      "mul(int256,int256)": {
        "details": "Multiplies two signed integers, reverts on overflow."
      },
      "sub(int256,int256)": {
        "details": "Subtracts two signed integers, reverts on overflow."
      }
    }
  },
  "userdoc": {
    "methods": {}
  }
}