{
  "contractName": "MockSafeSignedFloatMath",
  "abi": [
    {
      "inputs": [
        {
          "internalType": "int256",
          "name": "a",
          "type": "int256"
        },
        {
          "internalType": "int256",
          "name": "b",
          "type": "int256"
        }
      ],
      "name": "mul",
      "outputs": [
        {
          "internalType": "int256",
          "name": "",
          "type": "int256"
        }
      ],
      "stateMutability": "pure",
      "type": "function"
    },
    {
      "inputs": [
        {
          "internalType": "int256",
          "name": "a",
          "type": "int256"
        },
        {
          "internalType": "int256",
          "name": "b",
          "type": "int256"
        }
      ],
      "name": "div",
      "outputs": [
        {
          "internalType": "int256",
          "name": "",
          "type": "int256"
        }
      ],
      "stateMutability": "pure",
      "type": "function"
    },
    {
      "inputs": [
        {
          "internalType": "int256",
          "name": "a",
          "type": "int256"
        },
        {
          "internalType": "int256",
          "name": "b",
          "type": "int256"
        }
      ],
      "name": "sub",
      "outputs": [
        {
          "internalType": "int256",
          "name": "",
          "type": "int256"
        }
      ],
      "stateMutability": "pure",
      "type": "function"
    },
    {
      "inputs": [
        {
          "internalType": "int256",
          "name": "a",
          "type": "int256"
        },
        {
          "internalType": "int256",
          "name": "b",
          "type": "int256"
        }
      ],
      "name": "add",
      "outputs": [
        {
          "internalType": "int256",
          "name": "",
          "type": "int256"
        }
      ],
      "stateMutability": "pure",
      "type": "function"
    },
    {
      "inputs": [
        {
          "internalType": "int256",
          "name": "a",
          "type": "int256"
        },
        {
          "internalType": "int256",
          "name": "b",
          "type": "int256"
        }
      ],
      "name": "mod",
      "outputs": [
        {
          "internalType": "int256",
          "name": "",
          "type": "int256"
        }
      ],
      "stateMutability": "pure",
      "type": "function"
    }
  ],
  "bytecode": "0x608060405234801561001057600080fd5b50610938806100206000396000f3fe608060405234801561001057600080fd5b50600436106100575760003560e01c806324e289281461005c57806343509138146100a8578063a5f3c23b146100f4578063adefc37b14610140578063bbe93d911461018c575b600080fd5b6100926004803603604081101561007257600080fd5b8101908080359060200190929190803590602001909291905050506101d8565b6040518082815260200191505060405180910390f35b6100de600480360360408110156100be57600080fd5b8101908080359060200190929190803590602001909291905050506101f5565b6040518082815260200191505060405180910390f35b61012a6004803603604081101561010a57600080fd5b810190808035906020019092919080359060200190929190505050610212565b6040518082815260200191505060405180910390f35b6101766004803603604081101561015657600080fd5b81019080803590602001909291908035906020019092919050505061022f565b6040518082815260200191505060405180910390f35b6101c2600480360360408110156101a257600080fd5b81019080803590602001909291908035906020019092919050505061024c565b6040518082815260200191505060405180910390f35b60006101ed828461026990919063ffffffff16565b905092915050565b600061020a82846102b390919063ffffffff16565b905092915050565b6000610227828461034390919063ffffffff16565b905092915050565b600061024482846103d190919063ffffffff16565b905092915050565b6000610261828461045f90919063ffffffff16565b905092915050565b60006102ab83836040518060400160405280601881526020017f536166654d6174683a206d6f64756c6f206279207a65726f00000000000000008152506104c8565b905092915050565b60008082141561032b576040517f08c379a00000000000000000000000000000000000000000000000000000000081526004018080602001828103825260208152602001807f5369676e6564536166654d6174683a206469766973696f6e206279207a65726f81525060200191505060405180910390fd5b600082848161033657fe5b0590508091505092915050565b60008082840190506000831215801561035c5750838112155b80610372575060008312801561037157508381125b5b6103c7576040517f08c379a00000000000000000000000000000000000000000000000000000000081526004018080602001828103825260218152602001806108766021913960400191505060405180910390fd5b8091505092915050565b6000808284039050600083121580156103ea5750838113155b8061040057506000831280156103ff57508381135b5b610455576040517f08c379a00000000000000000000000000000000000000000000000000000000081526004018080602001828103825260248152602001806108df6024913960400191505060405180910390fd5b8091505092915050565b600080610475838561058990919063ffffffff16565b90506104bf670de0b6b3a76400006104b16104a26002670de0b6b3a76400006106b390919063ffffffff16565b846107e790919063ffffffff16565b6106b390919063ffffffff16565b91505092915050565b6000808314158290610575576040517f08c379a00000000000000000000000000000000000000000000000000000000081526004018080602001828103825283818151815260200191508051906020019080838360005b8381101561053a57808201518184015260208101905061051f565b50505050905090810190601f1680156105675780820380516001836020036101000a031916815260200191505b509250505060405180910390fd5b5082848161057f57fe5b0790509392505050565b60008083141561059c57600090506106ad565b7fffffffffffffffffffffffffffffffffffffffffffffffffffffffffffffffff831480156105ea57507f800000000000000000000000000000000000000000000000000000000000000082145b15610640576040517f08c379a00000000000000000000000000000000000000000000000000000000081526004018080602001828103825260278152602001806108b86027913960400191505060405180910390fd5b600082840290508284828161065157fe5b05146106a8576040517f08c379a00000000000000000000000000000000000000000000000000000000081526004018080602001828103825260278152602001806108b86027913960400191505060405180910390fd5b809150505b92915050565b60008082141561072b576040517f08c379a00000000000000000000000000000000000000000000000000000000081526004018080602001828103825260208152602001807f5369676e6564536166654d6174683a206469766973696f6e206279207a65726f81525060200191505060405180910390fd5b7fffffffffffffffffffffffffffffffffffffffffffffffffffffffffffffffff8214801561077957507f800000000000000000000000000000000000000000000000000000000000000083145b156107cf576040517f08c379a00000000000000000000000000000000000000000000000000000000081526004018080602001828103825260218152602001806108976021913960400191505060405180910390fd5b60008284816107da57fe5b0590508091505092915050565b6000808284019050600083121580156108005750838112155b80610816575060008312801561081557508381125b5b61086b576040517f08c379a00000000000000000000000000000000000000000000000000000000081526004018080602001828103825260218152602001806108766021913960400191505060405180910390fd5b809150509291505056fe5369676e6564536166654d6174683a206164646974696f6e206f766572666c6f775369676e6564536166654d6174683a206469766973696f6e206f766572666c6f775369676e6564536166654d6174683a206d756c7469706c69636174696f6e206f766572666c6f775369676e6564536166654d6174683a207375627472616374696f6e206f766572666c6f77a264697066735822122029cb82718045cbf2722adb1a9459bfa554515bdc31e6fc4006f040c3a61ec9a664736f6c63430006000033",
  "source": "/*\n * CDF contract. Copyright © 2020 by Opyn.co .\n * Author: Aparna Krishnan <aparna@opyn.co>\n */\npragma solidity 0.6.0;\n\nimport \"./SafeSignedFloatMath.sol\";\n\ncontract MockSafeSignedFloatMath {\n    using SafeSignedFloatMath for int256;\n\n    /**\n     * @dev Multiplies two signed integers, reverts on overflow.\n     */\n    function mul(int256 a, int256 b) external pure returns (int256) {\n        return a.mul(b);\n    }\n\n    /**\n     * @dev Integer division of two signed integers truncating the quotient, reverts on division by zero.\n     */\n    function div(int256 a, int256 b) external pure returns (int256) {\n        return a.div(b);\n    }\n\n    /**\n     * @dev Subtracts two signed integers, reverts on overflow.\n     */\n    function sub(int256 a, int256 b) external pure returns (int256) {\n        return a.sub(b);\n    }\n\n    /**\n     * @dev Adds two signed integers, reverts on overflow.\n     */\n    function add(int256 a, int256 b) external pure returns (int256) {\n        return a.add(b);\n    }\n\n    /**\n     * @dev Returns the remainder of dividing two signed integers.\n     */\n    function mod(int256 a, int256 b) external pure returns (int256) {\n        return a.mod(b);\n    }\n}\n",
  "sourcePath": "/Users/aparnakrishnan/Desktop/Opyn/Black-Scholes/contracts/MockSafeSignedFloatMath.sol",
  "compiler": {
    "name": "solc",
    "version": "0.6.0+commit.26b70077.Emscripten.clang"
  },
  "schemaVersion": "3.2.0",
  "updatedAt": "2020-06-04T05:52:15.416Z",
  "devdoc": {
    "methods": {
      "add(int256,int256)": {
        "details": "Adds two signed integers, reverts on overflow."
      },
      "div(int256,int256)": {
        "details": "Integer division of two signed integers truncating the quotient, reverts on division by zero."
      },
      "mod(int256,int256)": {
        "details": "Returns the remainder of dividing two signed integers."
      },
      "mul(int256,int256)": {
        "details": "Multiplies two signed integers, reverts on overflow."
      },
      "sub(int256,int256)": {
        "details": "Subtracts two signed integers, reverts on overflow."
      }
    }
  },
  "userdoc": {
    "methods": {}
  }
}