{
  "contractName": "NormalCDF",
  "abi": [
    {
      "inputs": [],
      "stateMutability": "nonpayable",
      "type": "constructor"
    },
    {
      "inputs": [
        {
          "internalType": "int128",
          "name": "value",
          "type": "int128"
        }
      ],
      "name": "N",
      "outputs": [
        {
          "internalType": "int128",
          "name": "",
          "type": "int128"
        }
      ],
      "stateMutability": "nonpayable",
      "type": "function"
    }
  ],
  "bytecode": "0x608060405260405180610a200160405280651b48eb57e00067ffffffffffffffff168152602001652d79883d200067ffffffffffffffff168152602001653faa2522600067ffffffffffffffff16815260200165640b5eece00067ffffffffffffffff168152602001659184e72a000067ffffffffffffffff16815260200165d12f0c4c600067ffffffffffffffff1681526020016601353a6b39400067ffffffffffffffff1681526020016601b48eb57e000067ffffffffffffffff1681526020016602738d24e5200067ffffffffffffffff16815260200166037235b96ea00067ffffffffffffffff1681526020016604cbd15e72600067ffffffffffffffff1681526020016606a4c14dbae00067ffffffffffffffff1681526020016609184e72a0000067ffffffffffffffff168152602001660c53f2555ee00067ffffffffffffffff16815260200166108e3ecca7400067ffffffffffffffff16815260200166160ff64c0e200067ffffffffffffffff168152602001661d21db4728800067ffffffffffffffff168152602001662615c87ffe000067ffffffffffffffff168152602001663161f9f260c00067ffffffffffffffff168152602001663f73934bb0400067ffffffffffffffff1681526020016650d30124a3e00067ffffffffffffffff168152602001666608b015f3000067ffffffffffffffff168152602001667fa62506c7a00067ffffffffffffffff168152602001669e582dc9a3a00067ffffffffffffffff16815260200166c2b04f45b1000067ffffffffffffffff16815260200166ed5b574d71a00067ffffffffffffffff16815260200167011eeacac80f800067ffffffffffffffff168152602001670157e7164e42000067ffffffffffffffff168152602001670198cf8e2a4de00067ffffffffffffffff1681526020016701e1ff256cad600067ffffffffffffffff168152602001670233ac6dec10400067ffffffffffffffff16815260200167028de998455bc00067ffffffffffffffff1681526020016702f0ad8c2a1d400067ffffffffffffffff16815260200167035b9d5689da800067ffffffffffffffff1681526020016703ce54ec05a6a00067ffffffffffffffff168152602001670448277ecaffc00067ffffffffffffffff1681526020016704c831af30b4400067ffffffffffffffff16815260200167054d74d4a23aa00067ffffffffffffffff1681526020016705d6c4cd02cc400067ffffffffffffffff168152602001670662da2d4a4aa00067ffffffffffffffff1681526020016706f05b59d3b2000067ffffffffffffffff16815260200167077ddc865d19600067ffffffffffffffff168152602001670809f1e6a497c00067ffffffffffffffff16815260200167089341df0529600067ffffffffffffffff168152602001670918850476afc00067ffffffffffffffff1681526020016709988f34dc64400067ffffffffffffffff168152602001670a1261c7a1bd600067ffffffffffffffff168152602001670a85195d1d89800067ffffffffffffffff168152602001670af009277d46c00067ffffffffffffffff168152602001670b52cd1b6208400067ffffffffffffffff168152602001670bad0a45bb53c00067ffffffffffffffff168152602001670bfeb78e3ab6a00067ffffffffffffffff168152602001670c47e7257d16200067ffffffffffffffff168152602001670c88cf9d5922000067ffffffffffffffff168152602001670cc1cbe8df54800067ffffffffffffffff168152602001670cf35b5c59f2600067ffffffffffffffff168152602001670d1e066461b3000067ffffffffffffffff168152602001670d425e85ddc0600067ffffffffffffffff168152602001670d61108ea09c600067ffffffffffffffff168152602001670d7aae039171000067ffffffffffffffff168152602001670d8fe3b282c0200067ffffffffffffffff168152602001670da143205bb3c00067ffffffffffffffff168152602001670daf54b9b503400067ffffffffffffffff168152602001670dbaa0eb2766000067ffffffffffffffff168152602001670dc394d8603b800067ffffffffffffffff168152602001670dcaa6bd5b55e00067ffffffffffffffff168152602001670dd02874dabcc00067ffffffffffffffff168152602001670dd462c15205200067ffffffffffffffff168152602001670dd79e6534c4000067ffffffffffffffff168152602001670dda11f259a9200067ffffffffffffffff168152602001670ddbeae248f1a00067ffffffffffffffff168152602001670ddd447dedf5600067ffffffffffffffff168152602001670dde4326827ee00067ffffffffffffffff168152602001670ddf0224f1e6000067ffffffffffffffff168152602001670ddf81793c2ac00067ffffffffffffffff168152602001670ddfe5849b17a00067ffffffffffffffff168152602001670de0252ec03a000067ffffffffffffffff168152602001670de052a84877200067ffffffffffffffff168152602001670de077098241a00067ffffffffffffffff168152602001670de0893a1f26e00067ffffffffffffffff168152602001670de09b6abc0c200067ffffffffffffffff1681525060009060516107969291906107a9565b503480156107a357600080fd5b506108a7565b8260516001016002900481019282156108575791602002820160005b8382111561081957835183826101000a8154816fffffffffffffffffffffffffffffffff021916908367ffffffffffffffff1602179055509260200192601001602081600f010492830192600103026107c5565b80156108555782816101000a8154906fffffffffffffffffffffffffffffffff0219169055601001602081600f01049283019260010302610819565b505b5090506108649190610868565b5090565b6108a491905b808211156108a057600081816101000a8154906fffffffffffffffffffffffffffffffff02191690555060010161086e565b5090565b90565b60b2806108b56000396000f3fe6080604052348015600f57600080fd5b506004361060285760003560e01c8063b791c61414602d575b600080fd5b605960048036036020811015604157600080fd5b810190808035600f0b90602001909291905050506075565b6040518082600f0b600f0b815260200191505060405180910390f35b600091905056fea2646970667358221220af9e408cada4fb7f8c397ab4aea448a60ca66f564b4887792ab0464dd74ea45964736f6c63430006080033",
  "immutableReferences": {},
  "source": "\n/*\n * CDF contract. Copyright © 2020 by Opyn.co .\n * Author: Aparna Krishnan <aparna@opyn.co>\n */\npragma solidity 0.6.8;\n\nimport \"./lib/ABDKMath64x64.sol\";\n\ncontract NormalCDF { \n\n    using ABDKMath64x64 for int128; \n\n    uint128[81] cdfValues = [0.00003 * 1e18, 0.00005 * 1e18, 0.00007 * 1e18, 0.00011 * 1e18,\n                            0.00016 * 1e18, 0.00023 * 1e18, 0.00034 * 1e18, 0.00048 * 1e18,\n                            0.00069 * 1e18, 0.00097 * 1e18, 0.00135 * 1e18, 0.00187 * 1e18,\n                            0.00256 * 1e18, 0.00347 * 1e18, 0.00466 * 1e18, 0.00621 * 1e18,\n                            0.0082 * 1e18, 0.01072 * 1e18, 0.0139 * 1e18, 0.01786 * 1e18,\n                            0.02275 * 1e18, 0.02872 * 1e18, 0.03593 * 1e18, 0.04457 * 1e18,\n                            0.0548 * 1e18, 0.06681 * 1e18, 0.08076 * 1e18, 0.0968 * 1e18,\n                            0.11507 * 1e18, 0.13567 * 1e18, 0.15866 * 1e18, 0.18406 * 1e18,\n                            0.21186 * 1e18, 0.24196 * 1e18, 0.27425 * 1e18, 0.30854 * 1e18,\n                            0.34458 * 1e18, 0.38209 * 1e18, 0.42074 * 1e18, 0.46017 * 1e18,\n                            0.5 * 1e18, 0.53983 * 1e18, 0.57926 * 1e18, 0.61791 * 1e18,\n                            0.65542 * 1e18, 0.69146 * 1e18, 0.72575 * 1e18, 0.75804 * 1e18,\n                            0.78814 * 1e18, 0.81594 * 1e18, 0.84134 * 1e18, 0.86433 * 1e18,\n                            0.88493 * 1e18, 0.9032 * 1e18, 0.91924 * 1e18, 0.93319 * 1e18,\n                            0.9452 * 1e18, 0.95543 * 1e18, 0.96407 * 1e18, 0.97128 * 1e18,\n                            0.97725 * 1e18, 0.98214 * 1e18, 0.9861 * 1e18, 0.98928 * 1e18,\n                            0.9918 * 1e18, 0.99379 * 1e18, 0.99534 * 1e18, 0.99653 * 1e18,\n                            0.99744 * 1e18, 0.99813 * 1e18, 0.99865 * 1e18, 0.99903 * 1e18,\n                            0.99931 * 1e18, 0.99952 * 1e18, 0.99966 * 1e18, 0.99977 * 1e18,\n                            0.99984 * 1e18, 0.99989 * 1e18, 0.99993 * 1e18, 0.99995 * 1e18, 0.99997 * 1e18];\n\n    /**\n     * Initialise the Normal CDF \n     */\n\n\n    /**\n     * @notice constructor\n     */\n    constructor() public {\n    }\n\n    /**\n     * @notice this function returns the cdf for the normal dist\n     */\n    function N(int128 value) external returns (int128) { \n\n    }\n} ",
  "sourcePath": "/Users/aparnakrishnan/Desktop/Opyn/Black-Scholes/contracts/NormalCDF.sol",
  "compiler": {
    "name": "solc",
    "version": "0.6.8+commit.0bbfe453.Emscripten.clang"
  },
  "schemaVersion": "3.2.0",
  "updatedAt": "2020-06-01T23:16:30.235Z",
  "devdoc": {
    "methods": {}
  },
  "userdoc": {
    "methods": {
      "N(int128)": {
        "notice": "this function returns the cdf for the normal dist"
      },
      "constructor": "constructor"
    }
  }
}